{
  "contractName": "Restaurants",
  "abi": [
    {
      "inputs": [],
      "payable": false,
      "stateMutability": "nonpayable",
      "type": "constructor"
    },
    {
      "anonymous": false,
      "inputs": [
        {
          "indexed": true,
          "internalType": "uint256",
          "name": "_restaurantId",
          "type": "uint256"
        }
      ],
      "name": "votedEvent",
      "type": "event"
    },
    {
      "constant": true,
      "inputs": [],
      "name": "restaurantCount",
      "outputs": [
        {
          "internalType": "uint256",
          "name": "",
          "type": "uint256"
        }
      ],
      "payable": false,
      "stateMutability": "view",
      "type": "function"
    },
    {
      "constant": true,
      "inputs": [
        {
          "internalType": "uint256",
          "name": "",
          "type": "uint256"
        }
      ],
      "name": "restaurants",
      "outputs": [
        {
          "internalType": "uint256",
          "name": "id",
          "type": "uint256"
        },
        {
          "internalType": "string",
          "name": "restaurantName",
          "type": "string"
        },
        {
          "internalType": "string",
          "name": "typeOfFood",
          "type": "string"
        },
        {
          "internalType": "uint256",
          "name": "voteCount",
          "type": "uint256"
        }
      ],
      "payable": false,
      "stateMutability": "view",
      "type": "function"
    },
    {
      "constant": true,
      "inputs": [
        {
          "internalType": "address",
          "name": "",
          "type": "address"
        }
      ],
      "name": "voters",
      "outputs": [
        {
          "internalType": "bool",
          "name": "",
          "type": "bool"
        }
      ],
      "payable": false,
      "stateMutability": "view",
      "type": "function"
    },
    {
      "constant": true,
      "inputs": [
        {
          "internalType": "address",
          "name": "",
          "type": "address"
        }
      ],
      "name": "votes",
      "outputs": [
        {
          "internalType": "uint256",
          "name": "",
          "type": "uint256"
        }
      ],
      "payable": false,
      "stateMutability": "view",
      "type": "function"
    },
    {
      "constant": false,
      "inputs": [
        {
          "internalType": "string",
          "name": "_name",
          "type": "string"
        },
        {
          "internalType": "string",
          "name": "_type",
          "type": "string"
        }
      ],
      "name": "addRestaurant",
      "outputs": [],
      "payable": false,
      "stateMutability": "nonpayable",
      "type": "function"
    },
    {
      "constant": false,
      "inputs": [
        {
          "internalType": "uint256",
          "name": "_restaurantId",
          "type": "uint256"
        }
      ],
      "name": "vote",
      "outputs": [],
      "payable": false,
      "stateMutability": "nonpayable",
      "type": "function"
    }
  ],
  "bytecode": "0x608060405234801561001057600080fd5b5061008b6040518060400160405280600681526020017f43616374757300000000000000000000000000000000000000000000000000008152506040518060400160405280600c81526020017f4d65786963616e20466f6f64000000000000000000000000000000000000000081525061010a60201b60201c565b6101056040518060400160405280600a81526020017f4368696e612053746172000000000000000000000000000000000000000000008152506040518060400160405280600c81526020017f4368696e65736520466f6f64000000000000000000000000000000000000000081525061010a60201b60201c565b61024f565b60036000815480929190600101919050555060405180608001604052806003548152602001838152602001828152602001600081525060026000600354815260200190815260200160002060008201518160000155602082015181600101908051906020019061017b9291906101aa565b5060408201518160020190805190602001906101989291906101aa565b50606082015181600301559050505050565b828054600181600116156101000203166002900490600052602060002090601f016020900481019282601f106101eb57805160ff1916838001178555610219565b82800160010185558215610219579182015b828111156102185782518255916020019190600101906101fd565b5b509050610226919061022a565b5090565b61024c91905b80821115610248576000816000905550600101610230565b5090565b90565b6108108061025e6000396000f3fe608060405234801561001057600080fd5b50600436106100625760003560e01c80630121b93f146100675780636325079614610095578063a3ec138d146101e7578063ad5461d814610243578063b11b91e614610364578063d8bff5a514610382575b600080fd5b6100936004803603602081101561007d57600080fd5b81019080803590602001909291905050506103da565b005b6101e5600480360360408110156100ab57600080fd5b81019080803590602001906401000000008111156100c857600080fd5b8201836020820111156100da57600080fd5b803590602001918460018302840111640100000000831117156100fc57600080fd5b91908080601f016020809104026020016040519081016040528093929190818152602001838380828437600081840152601f19601f8201169050808301925050505050505091929192908035906020019064010000000081111561015f57600080fd5b82018360208201111561017157600080fd5b8035906020019184600183028401116401000000008311171561019357600080fd5b91908080601f016020809104026020016040519081016040528093929190818152602001838380828437600081840152601f19601f8201169050808301925050505050505091929192905050506104f8565b005b610229600480360360208110156101fd57600080fd5b81019080803573ffffffffffffffffffffffffffffffffffffffff169060200190929190505050610598565b604051808215151515815260200191505060405180910390f35b61026f6004803603602081101561025957600080fd5b81019080803590602001909291905050506105b8565b604051808581526020018060200180602001848152602001838103835286818151815260200191508051906020019080838360005b838110156102bf5780820151818401526020810190506102a4565b50505050905090810190601f1680156102ec5780820380516001836020036101000a031916815260200191505b50838103825285818151815260200191508051906020019080838360005b8381101561032557808201518184015260208101905061030a565b50505050905090810190601f1680156103525780820380516001836020036101000a031916815260200191505b50965050505050505060405180910390f35b61036c610718565b6040518082815260200191505060405180910390f35b6103c46004803603602081101561039857600080fd5b81019080803573ffffffffffffffffffffffffffffffffffffffff16906020019092919050505061071e565b6040518082815260200191505060405180910390f35b6000803373ffffffffffffffffffffffffffffffffffffffff1673ffffffffffffffffffffffffffffffffffffffff16815260200190815260200160002060009054906101000a900460ff161561043057600080fd5b60008111801561044257506003548111155b61044b57600080fd5b60016000803373ffffffffffffffffffffffffffffffffffffffff1673ffffffffffffffffffffffffffffffffffffffff16815260200190815260200160002060006101000a81548160ff0219169083151502179055506002600082815260200190815260200160002060030160008154809291906001019190505550807ffff3c900d938d21d0990d786e819f29b8d05c1ef587b462b939609625b684b1660405160405180910390a250565b600360008154809291906001019190505550604051806080016040528060035481526020018381526020018281526020016000815250600260006003548152602001908152602001600020600082015181600001556020820151816001019080519060200190610569929190610736565b506040820151816002019080519060200190610586929190610736565b50606082015181600301559050505050565b60006020528060005260406000206000915054906101000a900460ff1681565b6002602052806000526040600020600091509050806000015490806001018054600181600116156101000203166002900480601f01602080910402602001604051908101604052809291908181526020018280546001816001161561010002031660029004801561066a5780601f1061063f5761010080835404028352916020019161066a565b820191906000526020600020905b81548152906001019060200180831161064d57829003601f168201915b505050505090806002018054600181600116156101000203166002900480601f0160208091040260200160405190810160405280929190818152602001828054600181600116156101000203166002900480156107085780601f106106dd57610100808354040283529160200191610708565b820191906000526020600020905b8154815290600101906020018083116106eb57829003601f168201915b5050505050908060030154905084565b60035481565b60016020528060005260406000206000915090505481565b828054600181600116156101000203166002900490600052602060002090601f016020900481019282601f1061077757805160ff19168380011785556107a5565b828001600101855582156107a5579182015b828111156107a4578251825591602001919060010190610789565b5b5090506107b291906107b6565b5090565b6107d891905b808211156107d45760008160009055506001016107bc565b5090565b9056fea265627a7a723158206227b10d4764d8f81a328f2ce76709cc55f199ff35ac064d375ef0f28c14cea864736f6c634300050c0032",
  "source": "pragma solidity ^0.5.11;\r\n\r\ncontract Restaurants {\r\n    // Movie model\r\n    struct Restaurant{\r\n        uint id;\r\n        string restaurantName;\r\n        string typeOfFood;\r\n        uint voteCount;\r\n    }\r\n\r\n    // Store which accounts that have voted and who they voted for\r\n    mapping(address => bool) public voters;\r\n    mapping(address => uint) public votes;\r\n\r\n    // Fetch Restaurant\r\n    mapping(uint => Restaurant) public restaurants;\r\n\r\n    // Store Candidates Count\r\n    uint public restaurantCount;\r\n\r\n    // voted event\r\n    event votedEvent (\r\n        uint indexed _restaurantId\r\n    );\r\n\r\n    constructor () public {\r\n        addRestaurant(\"Cactus\", \"Mexican Food\");\r\n        addRestaurant(\"China Star\", \"Chinese Food\");\r\n    }\r\n\r\n    function addRestaurant (string memory _name, string memory _type) public {\r\n        restaurantCount ++;\r\n        restaurants[restaurantCount] = Restaurant(restaurantCount, _name, _type, 0);\r\n    }\r\n\r\n    function vote (uint _restaurantId) public {\r\n        // require that they haven't voted before and voting for valid restaurant\r\n        require(!voters[msg.sender]);\r\n        require(_restaurantId > 0 && _restaurantId <= restaurantCount);\r\n\r\n        // record that voter has voted and update vote counts\r\n        voters[msg.sender] = true;\r\n        restaurants[_restaurantId].voteCount ++;\r\n\r\n        // trigger voted event\r\n        emit votedEvent(_restaurantId);\r\n    }\r\n}",
  "sourcePath": "C:/Users/Ben/Desktop/Blockchain App/election/contracts/Restaurants.sol",
  "compiler": {
    "name": "solc",
    "version": "0.5.12+commit.7709ece9.Emscripten.clang"
  },
  "schemaVersion": "3.0.19",
  "updatedAt": "2019-12-13T06:02:16.619Z",
  "networkType": "ethereum",
  "devdoc": {
    "methods": {}
  },
  "userdoc": {
    "methods": {}
  }
}